{
  "_format": "hh-sol-artifact-1",
  "contractName": "MatatuGame",
  "sourceName": "contracts/MatatuGame.sol",
  "abi": [
    {
      "anonymous": false,
      "inputs": [
        {
          "indexed": false,
          "internalType": "uint256",
          "name": "gameId",
          "type": "uint256"
        },
        {
          "indexed": false,
          "internalType": "address",
          "name": "winner",
          "type": "address"
        },
        {
          "indexed": false,
          "internalType": "uint256",
          "name": "winnings",
          "type": "uint256"
        }
      ],
      "name": "GameEnded",
      "type": "event"
    },
    {
      "anonymous": false,
      "inputs": [
        {
          "indexed": false,
          "internalType": "uint256",
          "name": "gameId",
          "type": "uint256"
        },
        {
          "indexed": false,
          "internalType": "address",
          "name": "player1",
          "type": "address"
        },
        {
          "indexed": false,
          "internalType": "address",
          "name": "player2",
          "type": "address"
        },
        {
          "indexed": false,
          "internalType": "uint256",
          "name": "stake",
          "type": "uint256"
        }
      ],
      "name": "GameStarted",
      "type": "event"
    },
    {
      "inputs": [
        {
          "internalType": "uint256",
          "name": "_gameId",
          "type": "uint256"
        },
        {
          "internalType": "address",
          "name": "_winner",
          "type": "address"
        }
      ],
      "name": "endGame",
      "outputs": [],
      "stateMutability": "nonpayable",
      "type": "function"
    },
    {
      "inputs": [],
      "name": "gameCounter",
      "outputs": [
        {
          "internalType": "uint256",
          "name": "",
          "type": "uint256"
        }
      ],
      "stateMutability": "view",
      "type": "function"
    },
    {
      "inputs": [
        {
          "internalType": "uint256",
          "name": "",
          "type": "uint256"
        }
      ],
      "name": "games",
      "outputs": [
        {
          "internalType": "address",
          "name": "player1",
          "type": "address"
        },
        {
          "internalType": "address",
          "name": "player2",
          "type": "address"
        },
        {
          "internalType": "uint256",
          "name": "stake",
          "type": "uint256"
        },
        {
          "internalType": "bool",
          "name": "isActive",
          "type": "bool"
        },
        {
          "internalType": "address",
          "name": "winner",
          "type": "address"
        }
      ],
      "stateMutability": "view",
      "type": "function"
    },
    {
      "inputs": [
        {
          "internalType": "address",
          "name": "_opponent",
          "type": "address"
        }
      ],
      "name": "startGame",
      "outputs": [],
      "stateMutability": "payable",
      "type": "function"
    }
  ],
  "bytecode": "0x6080604052348015600f57600080fd5b50610c008061001f6000396000f3fe60806040526004361061003f5760003560e01c8063117a5b90146100445780632e0be39a1461008557806386514131146100b05780639c3e21ae146100d9575b600080fd5b34801561005057600080fd5b5061006b60048036038101906100669190610735565b6100f5565b60405161007c9594939291906107cd565b60405180910390f35b34801561009157600080fd5b5061009a610198565b6040516100a79190610820565b60405180910390f35b3480156100bc57600080fd5b506100d760048036038101906100d29190610867565b61019e565b005b6100f360048036038101906100ee91906108a7565b6104db565b005b60016020528060005260406000206000915090508060000160009054906101000a900473ffffffffffffffffffffffffffffffffffffffff16908060010160009054906101000a900473ffffffffffffffffffffffffffffffffffffffff16908060020154908060030160009054906101000a900460ff16908060030160019054906101000a900473ffffffffffffffffffffffffffffffffffffffff16905085565b60005481565b60006001600084815260200190815260200160002090508060030160009054906101000a900460ff16610206576040517f08c379a00000000000000000000000000000000000000000000000000000000081526004016101fd90610931565b60405180910390fd5b3373ffffffffffffffffffffffffffffffffffffffff168160000160009054906101000a900473ffffffffffffffffffffffffffffffffffffffff1673ffffffffffffffffffffffffffffffffffffffff1614806102b357503373ffffffffffffffffffffffffffffffffffffffff168160010160009054906101000a900473ffffffffffffffffffffffffffffffffffffffff1673ffffffffffffffffffffffffffffffffffffffff16145b6102f2576040517f08c379a00000000000000000000000000000000000000000000000000000000081526004016102e99061099d565b60405180910390fd5b8060000160009054906101000a900473ffffffffffffffffffffffffffffffffffffffff1673ffffffffffffffffffffffffffffffffffffffff168273ffffffffffffffffffffffffffffffffffffffff16148061039f57508060010160009054906101000a900473ffffffffffffffffffffffffffffffffffffffff1673ffffffffffffffffffffffffffffffffffffffff168273ffffffffffffffffffffffffffffffffffffffff16145b6103de576040517f08c379a00000000000000000000000000000000000000000000000000000000081526004016103d590610a09565b60405180910390fd5b60008160030160006101000a81548160ff021916908315150217905550818160030160016101000a81548173ffffffffffffffffffffffffffffffffffffffff021916908373ffffffffffffffffffffffffffffffffffffffff1602179055506000600282600201546104519190610a58565b90508273ffffffffffffffffffffffffffffffffffffffff166108fc829081150290604051600060405180830381858888f19350505050158015610499573d6000803e3d6000fd5b507ff1898de79c348962fab7695532341027e5bceb0ea2a8785790fa7d7efeeee1298484836040516104cd93929190610a9a565b60405180910390a150505050565b6000341161051e576040517f08c379a000000000000000000000000000000000000000000000000000000000815260040161051590610b1d565b60405180910390fd5b60008081548092919061053090610b3d565b91905055506040518060a001604052803373ffffffffffffffffffffffffffffffffffffffff1681526020018273ffffffffffffffffffffffffffffffffffffffff168152602001348152602001600115158152602001600073ffffffffffffffffffffffffffffffffffffffff16815250600160008054815260200190815260200160002060008201518160000160006101000a81548173ffffffffffffffffffffffffffffffffffffffff021916908373ffffffffffffffffffffffffffffffffffffffff16021790555060208201518160010160006101000a81548173ffffffffffffffffffffffffffffffffffffffff021916908373ffffffffffffffffffffffffffffffffffffffff1602179055506040820151816002015560608201518160030160006101000a81548160ff02191690831515021790555060808201518160030160016101000a81548173ffffffffffffffffffffffffffffffffffffffff021916908373ffffffffffffffffffffffffffffffffffffffff1602179055509050507f8e9434a1dd433fabbc1e2c2c4ac88cf8a8cd87237bdcedc535cb522716f55b416000543383346040516106ef9493929190610b85565b60405180910390a150565b600080fd5b6000819050919050565b610712816106ff565b811461071d57600080fd5b50565b60008135905061072f81610709565b92915050565b60006020828403121561074b5761074a6106fa565b5b600061075984828501610720565b91505092915050565b600073ffffffffffffffffffffffffffffffffffffffff82169050919050565b600061078d82610762565b9050919050565b61079d81610782565b82525050565b6107ac816106ff565b82525050565b60008115159050919050565b6107c7816107b2565b82525050565b600060a0820190506107e26000830188610794565b6107ef6020830187610794565b6107fc60408301866107a3565b61080960608301856107be565b6108166080830184610794565b9695505050505050565b600060208201905061083560008301846107a3565b92915050565b61084481610782565b811461084f57600080fd5b50565b6000813590506108618161083b565b92915050565b6000806040838503121561087e5761087d6106fa565b5b600061088c85828601610720565b925050602061089d85828601610852565b9150509250929050565b6000602082840312156108bd576108bc6106fa565b5b60006108cb84828501610852565b91505092915050565b600082825260208201905092915050565b7f47616d65206973206e6f74206163746976650000000000000000000000000000600082015250565b600061091b6012836108d4565b9150610926826108e5565b602082019050919050565b6000602082019050818103600083015261094a8161090e565b9050919050565b7f4e6f742061207061727469636970616e74000000000000000000000000000000600082015250565b60006109876011836108d4565b915061099282610951565b602082019050919050565b600060208201905081810360008301526109b68161097a565b9050919050565b7f496e76616c69642077696e6e6572000000000000000000000000000000000000600082015250565b60006109f3600e836108d4565b91506109fe826109bd565b602082019050919050565b60006020820190508181036000830152610a22816109e6565b9050919050565b7f4e487b7100000000000000000000000000000000000000000000000000000000600052601160045260246000fd5b6000610a63826106ff565b9150610a6e836106ff565b9250828202610a7c816106ff565b91508282048414831517610a9357610a92610a29565b5b5092915050565b6000606082019050610aaf60008301866107a3565b610abc6020830185610794565b610ac960408301846107a3565b949350505050565b7f5374616b65206d7573742062652067726561746572207468616e207a65726f00600082015250565b6000610b07601f836108d4565b9150610b1282610ad1565b602082019050919050565b60006020820190508181036000830152610b3681610afa565b9050919050565b6000610b48826106ff565b91507fffffffffffffffffffffffffffffffffffffffffffffffffffffffffffffffff8203610b7a57610b79610a29565b5b600182019050919050565b6000608082019050610b9a60008301876107a3565b610ba76020830186610794565b610bb46040830185610794565b610bc160608301846107a3565b9594505050505056fea26469706673582212207f89be82154e9b7196debe63d06bc418403e4c3d6dd0127ed3af95c230ab6be064736f6c634300081c0033",
  "linkReferences": {},
  "deployedLinkReferences": {}
}